{
  "contractName": "Dice",
  "abi": [
    {
      "inputs": [],
      "stateMutability": "nonpayable",
      "type": "constructor"
    },
    {
      "anonymous": false,
      "inputs": [
        {
          "indexed": true,
          "internalType": "address",
          "name": "owner",
          "type": "address"
        },
        {
          "indexed": true,
          "internalType": "address",
          "name": "spender",
          "type": "address"
        },
        {
          "indexed": false,
          "internalType": "uint256",
          "name": "value",
          "type": "uint256"
        }
      ],
      "name": "Approval",
      "type": "event"
    },
    {
      "anonymous": false,
      "inputs": [
        {
          "indexed": true,
          "internalType": "address",
          "name": "previousOwner",
          "type": "address"
        },
        {
          "indexed": true,
          "internalType": "address",
          "name": "newOwner",
          "type": "address"
        }
      ],
      "name": "OwnershipTransferred",
      "type": "event"
    },
    {
      "anonymous": false,
      "inputs": [
        {
          "indexed": true,
          "internalType": "address",
          "name": "from",
          "type": "address"
        },
        {
          "indexed": true,
          "internalType": "address",
          "name": "to",
          "type": "address"
        },
        {
          "indexed": false,
          "internalType": "uint256",
          "name": "value",
          "type": "uint256"
        }
      ],
      "name": "Transfer",
      "type": "event"
    },
    {
      "inputs": [
        {
          "internalType": "address",
          "name": "owner",
          "type": "address"
        },
        {
          "internalType": "address",
          "name": "spender",
          "type": "address"
        }
      ],
      "name": "allowance",
      "outputs": [
        {
          "internalType": "uint256",
          "name": "",
          "type": "uint256"
        }
      ],
      "stateMutability": "view",
      "type": "function",
      "constant": true
    },
    {
      "inputs": [
        {
          "internalType": "address",
          "name": "spender",
          "type": "address"
        },
        {
          "internalType": "uint256",
          "name": "amount",
          "type": "uint256"
        }
      ],
      "name": "approve",
      "outputs": [
        {
          "internalType": "bool",
          "name": "",
          "type": "bool"
        }
      ],
      "stateMutability": "nonpayable",
      "type": "function"
    },
    {
      "inputs": [
        {
          "internalType": "address",
          "name": "account",
          "type": "address"
        }
      ],
      "name": "balanceOf",
      "outputs": [
        {
          "internalType": "uint256",
          "name": "",
          "type": "uint256"
        }
      ],
      "stateMutability": "view",
      "type": "function",
      "constant": true
    },
    {
      "inputs": [],
      "name": "decimals",
      "outputs": [
        {
          "internalType": "uint8",
          "name": "",
          "type": "uint8"
        }
      ],
      "stateMutability": "view",
      "type": "function",
      "constant": true
    },
    {
      "inputs": [
        {
          "internalType": "address",
          "name": "spender",
          "type": "address"
        },
        {
          "internalType": "uint256",
          "name": "subtractedValue",
          "type": "uint256"
        }
      ],
      "name": "decreaseAllowance",
      "outputs": [
        {
          "internalType": "bool",
          "name": "",
          "type": "bool"
        }
      ],
      "stateMutability": "nonpayable",
      "type": "function"
    },
    {
      "inputs": [
        {
          "internalType": "address",
          "name": "",
          "type": "address"
        }
      ],
      "name": "idPersona_randomNumber",
      "outputs": [
        {
          "internalType": "uint256",
          "name": "",
          "type": "uint256"
        }
      ],
      "stateMutability": "view",
      "type": "function",
      "constant": true
    },
    {
      "inputs": [
        {
          "internalType": "address",
          "name": "",
          "type": "address"
        }
      ],
      "name": "id_userNumber",
      "outputs": [
        {
          "internalType": "uint256",
          "name": "",
          "type": "uint256"
        }
      ],
      "stateMutability": "view",
      "type": "function",
      "constant": true
    },
    {
      "inputs": [
        {
          "internalType": "address",
          "name": "spender",
          "type": "address"
        },
        {
          "internalType": "uint256",
          "name": "addedValue",
          "type": "uint256"
        }
      ],
      "name": "increaseAllowance",
      "outputs": [
        {
          "internalType": "bool",
          "name": "",
          "type": "bool"
        }
      ],
      "stateMutability": "nonpayable",
      "type": "function"
    },
    {
      "inputs": [],
      "name": "name",
      "outputs": [
        {
          "internalType": "string",
          "name": "",
          "type": "string"
        }
      ],
      "stateMutability": "view",
      "type": "function",
      "constant": true
    },
    {
      "inputs": [],
      "name": "owner",
      "outputs": [
        {
          "internalType": "address",
          "name": "",
          "type": "address"
        }
      ],
      "stateMutability": "view",
      "type": "function",
      "constant": true
    },
    {
      "inputs": [],
      "name": "renounceOwnership",
      "outputs": [],
      "stateMutability": "nonpayable",
      "type": "function"
    },
    {
      "inputs": [],
      "name": "symbol",
      "outputs": [
        {
          "internalType": "string",
          "name": "",
          "type": "string"
        }
      ],
      "stateMutability": "view",
      "type": "function",
      "constant": true
    },
    {
      "inputs": [],
      "name": "totalSupply",
      "outputs": [
        {
          "internalType": "uint256",
          "name": "",
          "type": "uint256"
        }
      ],
      "stateMutability": "view",
      "type": "function",
      "constant": true
    },
    {
      "inputs": [
        {
          "internalType": "address",
          "name": "to",
          "type": "address"
        },
        {
          "internalType": "uint256",
          "name": "amount",
          "type": "uint256"
        }
      ],
      "name": "transfer",
      "outputs": [
        {
          "internalType": "bool",
          "name": "",
          "type": "bool"
        }
      ],
      "stateMutability": "nonpayable",
      "type": "function"
    },
    {
      "inputs": [
        {
          "internalType": "address",
          "name": "from",
          "type": "address"
        },
        {
          "internalType": "address",
          "name": "to",
          "type": "address"
        },
        {
          "internalType": "uint256",
          "name": "amount",
          "type": "uint256"
        }
      ],
      "name": "transferFrom",
      "outputs": [
        {
          "internalType": "bool",
          "name": "",
          "type": "bool"
        }
      ],
      "stateMutability": "nonpayable",
      "type": "function"
    },
    {
      "inputs": [
        {
          "internalType": "address",
          "name": "newOwner",
          "type": "address"
        }
      ],
      "name": "transferOwnership",
      "outputs": [],
      "stateMutability": "nonpayable",
      "type": "function"
    },
    {
      "inputs": [
        {
          "internalType": "uint256",
          "name": "_price",
          "type": "uint256"
        }
      ],
      "name": "changePrice",
      "outputs": [
        {
          "internalType": "bool",
          "name": "",
          "type": "bool"
        }
      ],
      "stateMutability": "nonpayable",
      "type": "function"
    },
    {
      "inputs": [
        {
          "internalType": "uint256",
          "name": "_numTokens",
          "type": "uint256"
        }
      ],
      "name": "tokenPrice",
      "outputs": [
        {
          "internalType": "uint256",
          "name": "",
          "type": "uint256"
        }
      ],
      "stateMutability": "view",
      "type": "function",
      "constant": true
    },
    {
      "inputs": [
        {
          "internalType": "address",
          "name": "_account",
          "type": "address"
        }
      ],
      "name": "balanceTokens",
      "outputs": [
        {
          "internalType": "uint256",
          "name": "",
          "type": "uint256"
        }
      ],
      "stateMutability": "view",
      "type": "function",
      "constant": true
    },
    {
      "inputs": [],
      "name": "balanceTokensSC",
      "outputs": [
        {
          "internalType": "uint256",
          "name": "",
          "type": "uint256"
        }
      ],
      "stateMutability": "view",
      "type": "function",
      "constant": true
    },
    {
      "inputs": [
        {
          "internalType": "uint256",
          "name": "_amount",
          "type": "uint256"
        }
      ],
      "name": "mint",
      "outputs": [],
      "stateMutability": "nonpayable",
      "type": "function"
    },
    {
      "inputs": [],
      "name": "balanceEthersSC",
      "outputs": [
        {
          "internalType": "uint256",
          "name": "",
          "type": "uint256"
        }
      ],
      "stateMutability": "view",
      "type": "function",
      "constant": true
    },
    {
      "inputs": [
        {
          "internalType": "uint256",
          "name": "_numTokens",
          "type": "uint256"
        }
      ],
      "name": "buyTokens",
      "outputs": [],
      "stateMutability": "payable",
      "type": "function",
      "payable": true
    },
    {
      "inputs": [
        {
          "internalType": "uint256",
          "name": "_numTokens",
          "type": "uint256"
        }
      ],
      "name": "sellTokens",
      "outputs": [],
      "stateMutability": "payable",
      "type": "function",
      "payable": true
    },
    {
      "inputs": [],
      "name": "sendEthers",
      "outputs": [
        {
          "internalType": "bool",
          "name": "",
          "type": "bool"
        }
      ],
      "stateMutability": "payable",
      "type": "function",
      "payable": true
    },
    {
      "inputs": [
        {
          "internalType": "uint256",
          "name": "_amount",
          "type": "uint256"
        }
      ],
      "name": "withdraw",
      "outputs": [
        {
          "internalType": "bool",
          "name": "",
          "type": "bool"
        }
      ],
      "stateMutability": "payable",
      "type": "function",
      "payable": true
    },
    {
      "inputs": [
        {
          "internalType": "uint256",
          "name": "_amountBet",
          "type": "uint256"
        }
      ],
      "name": "bet1",
      "outputs": [],
      "stateMutability": "nonpayable",
      "type": "function"
    },
    {
      "inputs": [
        {
          "internalType": "uint256",
          "name": "_amountBet",
          "type": "uint256"
        }
      ],
      "name": "bet2",
      "outputs": [],
      "stateMutability": "nonpayable",
      "type": "function"
    },
    {
      "inputs": [
        {
          "internalType": "uint256",
          "name": "_amountBet",
          "type": "uint256"
        }
      ],
      "name": "bet3",
      "outputs": [],
      "stateMutability": "nonpayable",
      "type": "function"
    },
    {
      "inputs": [
        {
          "internalType": "uint256",
          "name": "_amountBet",
          "type": "uint256"
        }
      ],
      "name": "bet4",
      "outputs": [],
      "stateMutability": "nonpayable",
      "type": "function"
    },
    {
      "inputs": [
        {
          "internalType": "uint256",
          "name": "_amountBet",
          "type": "uint256"
        }
      ],
      "name": "bet5",
      "outputs": [],
      "stateMutability": "nonpayable",
      "type": "function"
    },
    {
      "inputs": [
        {
          "internalType": "uint256",
          "name": "_amountBet",
          "type": "uint256"
        }
      ],
      "name": "bet6",
      "outputs": [],
      "stateMutability": "nonpayable",
      "type": "function"
    }
  ],
  "bytecode": "0x60806040526729a2241af62c000060065560006009553480156200002257600080fd5b506040518060400160405280600481526020017f44696365000000000000000000000000000000000000000000000000000000008152506040518060400160405280600381526020017f4a444d00000000000000000000000000000000000000000000000000000000008152508160039080519060200190620000a79291906200034d565b508060049080519060200190620000c09291906200034d565b505050620000e3620000d7620000fc60201b60201c565b6200010460201b60201c565b620000f6306064620001ca60201b60201c565b620005a9565b600033905090565b6000600560009054906101000a900473ffffffffffffffffffffffffffffffffffffffff16905081600560006101000a81548173ffffffffffffffffffffffffffffffffffffffff021916908373ffffffffffffffffffffffffffffffffffffffff1602179055508173ffffffffffffffffffffffffffffffffffffffff168173ffffffffffffffffffffffffffffffffffffffff167f8be0079c531659141344cd1fd0a4f28419497f9722a3daafe3b4186f6b6457e060405160405180910390a35050565b600073ffffffffffffffffffffffffffffffffffffffff168273ffffffffffffffffffffffffffffffffffffffff1614156200023d576040517f08c379a0000000000000000000000000000000000000000000000000000000008152600401620002349062000435565b60405180910390fd5b62000251600083836200034360201b60201c565b806002600082825462000265919062000485565b92505081905550806000808473ffffffffffffffffffffffffffffffffffffffff1673ffffffffffffffffffffffffffffffffffffffff1681526020019081526020016000206000828254620002bc919062000485565b925050819055508173ffffffffffffffffffffffffffffffffffffffff16600073ffffffffffffffffffffffffffffffffffffffff167fddf252ad1be2c89b69c2b068fc378daa952ba7f163c4a11628f55a4df523b3ef8360405162000323919062000457565b60405180910390a36200033f600083836200034860201b60201c565b5050565b505050565b505050565b8280546200035b90620004ec565b90600052602060002090601f0160209004810192826200037f5760008555620003cb565b82601f106200039a57805160ff1916838001178555620003cb565b82800160010185558215620003cb579182015b82811115620003ca578251825591602001919060010190620003ad565b5b509050620003da9190620003de565b5090565b5b80821115620003f9576000816000905550600101620003df565b5090565b60006200040c601f8362000474565b9150620004198262000580565b602082019050919050565b6200042f81620004e2565b82525050565b600060208201905081810360008301526200045081620003fd565b9050919050565b60006020820190506200046e600083018462000424565b92915050565b600082825260208201905092915050565b60006200049282620004e2565b91506200049f83620004e2565b9250827fffffffffffffffffffffffffffffffffffffffffffffffffffffffffffffffff03821115620004d757620004d662000522565b5b828201905092915050565b6000819050919050565b600060028204905060018216806200050557607f821691505b602082108114156200051c576200051b62000551565b5b50919050565b7f4e487b7100000000000000000000000000000000000000000000000000000000600052601160045260246000fd5b7f4e487b7100000000000000000000000000000000000000000000000000000000600052602260045260246000fd5b7f45524332303a206d696e7420746f20746865207a65726f206164647265737300600082015250565b61311980620005b96000396000f3fe6080604052600436106101e35760003560e01c806395d89b4111610102578063bc1e426611610095578063dd62ed3e11610064578063dd62ed3e1461070a578063f2fde38b14610747578063f40baf7614610770578063f9b4527a14610799576101e3565b8063bc1e426614610652578063c17744801461067b578063c2ed0596146106a4578063d4ddce8a146106cd576101e3565b8063a9059cbb116100d1578063a9059cbb14610584578063b1d89e99146105c1578063b921b83d146105ea578063b934c38414610627576101e3565b806395d89b41146104b6578063a0712d68146104e1578063a2b40d191461050a578063a457c2d714610547576101e3565b8063313ce5671161017a57806370a082311161014957806370a082311461040c578063715018a6146104495780638da5cb5b1461046057806392ef10d81461048b576101e3565b8063313ce5671461036c5780633610724e1461039757806339509351146103b35780636c11bcd3146103f0576101e3565b80631cd93b73116101b65780631cd93b73146102995780632046737f146102c257806323b872dd146102ff5780632e1a7d4d1461033c576101e3565b806306fdde03146101e85780630783cda714610213578063095ea7b31461023157806318160ddd1461026e575b600080fd5b3480156101f457600080fd5b506101fd6107d6565b60405161020a91906126ed565b60405180910390f35b61021b610868565b60405161022891906126d2565b60405180910390f35b34801561023d57600080fd5b5061025860048036038101906102539190612342565b6108ed565b60405161026591906126d2565b60405180910390f35b34801561027a57600080fd5b50610283610910565b604051610290919061290f565b60405180910390f35b3480156102a557600080fd5b506102c060048036038101906102bb919061237e565b61091a565b005b3480156102ce57600080fd5b506102e960048036038101906102e4919061228e565b610a49565b6040516102f6919061290f565b60405180910390f35b34801561030b57600080fd5b50610326600480360381019061032191906122f3565b610a61565b60405161033391906126d2565b60405180910390f35b6103566004803603810190610351919061237e565b610a90565b60405161036391906126d2565b60405180910390f35b34801561037857600080fd5b50610381610b78565b60405161038e919061292a565b60405180910390f35b6103b160048036038101906103ac919061237e565b610b81565b005b3480156103bf57600080fd5b506103da60048036038101906103d59190612342565b610c88565b6040516103e791906126d2565b60405180910390f35b61040a6004803603810190610405919061237e565b610d32565b005b34801561041857600080fd5b50610433600480360381019061042e919061228e565b610e1d565b604051610440919061290f565b60405180910390f35b34801561045557600080fd5b5061045e610e65565b005b34801561046c57600080fd5b50610475610eed565b60405161048291906126b7565b60405180910390f35b34801561049757600080fd5b506104a0610f17565b6040516104ad919061290f565b60405180910390f35b3480156104c257600080fd5b506104cb610f27565b6040516104d891906126ed565b60405180910390f35b3480156104ed57600080fd5b506105086004803603810190610503919061237e565b610fb9565b005b34801561051657600080fd5b50610531600480360381019061052c919061237e565b611042565b60405161053e91906126d2565b60405180910390f35b34801561055357600080fd5b5061056e60048036038101906105699190612342565b6110e3565b60405161057b91906126d2565b60405180910390f35b34801561059057600080fd5b506105ab60048036038101906105a69190612342565b6111cd565b6040516105b891906126d2565b60405180910390f35b3480156105cd57600080fd5b506105e860048036038101906105e3919061237e565b6111f0565b005b3480156105f657600080fd5b50610611600480360381019061060c919061228e565b61131f565b60405161061e919061290f565b60405180910390f35b34801561063357600080fd5b5061063c611337565b604051610649919061290f565b60405180910390f35b34801561065e57600080fd5b506106796004803603810190610674919061237e565b611351565b005b34801561068757600080fd5b506106a2600480360381019061069d919061237e565b611480565b005b3480156106b057600080fd5b506106cb60048036038101906106c6919061237e565b6115af565b005b3480156106d957600080fd5b506106f460048036038101906106ef919061237e565b6116de565b604051610701919061290f565b60405180910390f35b34801561071657600080fd5b50610731600480360381019061072c91906122b7565b611702565b60405161073e919061290f565b60405180910390f35b34801561075357600080fd5b5061076e6004803603810190610769919061228e565b611789565b005b34801561077c57600080fd5b506107976004803603810190610792919061237e565b611881565b005b3480156107a557600080fd5b506107c060048036038101906107bb919061228e565b6119b0565b6040516107cd919061290f565b60405180910390f35b6060600380546107e590612afe565b80601f016020809104026020016040519081016040528092919081815260200182805461081190612afe565b801561085e5780601f106108335761010080835404028352916020019161085e565b820191906000526020600020905b81548152906001019060200180831161084157829003601f168201915b5050505050905090565b60006108726119c2565b73ffffffffffffffffffffffffffffffffffffffff16610890610eed565b73ffffffffffffffffffffffffffffffffffffffff16146108e6576040517f08c379a00000000000000000000000000000000000000000000000000000000081526004016108dd9061280f565b60405180910390fd5b6001905090565b6000806108f86119c2565b90506109058185856119ca565b600191505092915050565b6000600254905090565b610923336119b0565b811115610965576040517f08c379a000000000000000000000000000000000000000000000000000000000815260040161095c906127af565b60405180910390fd5b61096d610f17565b60028261097a91906129e8565b11156109bb576040517f08c379a00000000000000000000000000000000000000000000000000000000081526004016109b29061272f565b60405180910390fd5b6002600760003373ffffffffffffffffffffffffffffffffffffffff1673ffffffffffffffffffffffffffffffffffffffff16815260200190815260200160002081905550610a08611b95565b610a10611c99565b610a18611ce0565b1415610a3a57610a353033600284610a3091906129e8565b611d27565b610a46565b610a45333083611d27565b5b50565b60086020528060005260406000206000915090505481565b600080610a6c6119c2565b9050610a79858285611fa8565b610a84858585611d27565b60019150509392505050565b6000610a9a6119c2565b73ffffffffffffffffffffffffffffffffffffffff16610ab8610eed565b73ffffffffffffffffffffffffffffffffffffffff1614610b0e576040517f08c379a0000000000000000000000000000000000000000000000000000000008152600401610b059061280f565b60405180910390fd5b610b16610eed565b73ffffffffffffffffffffffffffffffffffffffff166108fc670de0b6b3a764000084610b4391906129e8565b9081150290604051600060405180830381858888f19350505050158015610b6e573d6000803e3d6000fd5b5060019050919050565b60006012905090565b6000610b8c826116de565b905080341015610bd1576040517f08c379a0000000000000000000000000000000000000000000000000000000008152600401610bc89061288f565b60405180910390fd5b6000610bdb610f17565b905080831115610c20576040517f08c379a0000000000000000000000000000000000000000000000000000000008152600401610c17906127ef565b60405180910390fd5b60008234610c2e9190612a42565b90503373ffffffffffffffffffffffffffffffffffffffff166108fc829081150290604051600060405180830381858888f19350505050158015610c76573d6000803e3d6000fd5b50610c82303386611d27565b50505050565b600080610c936119c2565b9050610d27818585600160008673ffffffffffffffffffffffffffffffffffffffff1673ffffffffffffffffffffffffffffffffffffffff16815260200190815260200160002060008973ffffffffffffffffffffffffffffffffffffffff1673ffffffffffffffffffffffffffffffffffffffff16815260200190815260200160002054610d229190612961565b6119ca565b600191505092915050565b60008111610d75576040517f08c379a0000000000000000000000000000000000000000000000000000000008152600401610d6c9061286f565b60405180910390fd5b610d7e336119b0565b811115610dc0576040517f08c379a0000000000000000000000000000000000000000000000000000000008152600401610db7906128af565b60405180910390fd5b610dcb333083611d27565b3373ffffffffffffffffffffffffffffffffffffffff166108fc610dee836116de565b9081150290604051600060405180830381858888f19350505050158015610e19573d6000803e3d6000fd5b5050565b60008060008373ffffffffffffffffffffffffffffffffffffffff1673ffffffffffffffffffffffffffffffffffffffff168152602001908152602001600020549050919050565b610e6d6119c2565b73ffffffffffffffffffffffffffffffffffffffff16610e8b610eed565b73ffffffffffffffffffffffffffffffffffffffff1614610ee1576040517f08c379a0000000000000000000000000000000000000000000000000000000008152600401610ed89061280f565b60405180910390fd5b610eeb6000612034565b565b6000600560009054906101000a900473ffffffffffffffffffffffffffffffffffffffff16905090565b6000610f2230610e1d565b905090565b606060048054610f3690612afe565b80601f0160208091040260200160405190810160405280929190818152602001828054610f6290612afe565b8015610faf5780601f10610f8457610100808354040283529160200191610faf565b820191906000526020600020905b815481529060010190602001808311610f9257829003601f168201915b5050505050905090565b610fc16119c2565b73ffffffffffffffffffffffffffffffffffffffff16610fdf610eed565b73ffffffffffffffffffffffffffffffffffffffff1614611035576040517f08c379a000000000000000000000000000000000000000000000000000000000815260040161102c9061280f565b60405180910390fd5b61103f30826120fa565b50565b600061104c6119c2565b73ffffffffffffffffffffffffffffffffffffffff1661106a610eed565b73ffffffffffffffffffffffffffffffffffffffff16146110c0576040517f08c379a00000000000000000000000000000000000000000000000000000000081526004016110b79061280f565b60405180910390fd5b670de0b6b3a7640000826110d491906129e8565b60068190555060019050919050565b6000806110ee6119c2565b90506000600160008373ffffffffffffffffffffffffffffffffffffffff1673ffffffffffffffffffffffffffffffffffffffff16815260200190815260200160002060008673ffffffffffffffffffffffffffffffffffffffff1673ffffffffffffffffffffffffffffffffffffffff168152602001908152602001600020549050838110156111b4576040517f08c379a00000000000000000000000000000000000000000000000000000000081526004016111ab906128cf565b60405180910390fd5b6111c182868684036119ca565b60019250505092915050565b6000806111d86119c2565b90506111e5818585611d27565b600191505092915050565b6111f9336119b0565b81111561123b576040517f08c379a0000000000000000000000000000000000000000000000000000000008152600401611232906127af565b60405180910390fd5b611243610f17565b60028261125091906129e8565b1115611291576040517f08c379a00000000000000000000000000000000000000000000000000000000081526004016112889061272f565b60405180910390fd5b6001600760003373ffffffffffffffffffffffffffffffffffffffff1673ffffffffffffffffffffffffffffffffffffffff168152602001908152602001600020819055506112de611b95565b6112e6611c99565b6112ee611ce0565b14156113105761130b303360028461130691906129e8565b611d27565b61131c565b61131b333083611d27565b5b50565b60076020528060005260406000206000915090505481565b600066038d7ea4c680004761134c91906129b7565b905090565b61135a336119b0565b81111561139c576040517f08c379a0000000000000000000000000000000000000000000000000000000008152600401611393906127af565b60405180910390fd5b6113a4610f17565b6002826113b191906129e8565b11156113f2576040517f08c379a00000000000000000000000000000000000000000000000000000000081526004016113e99061272f565b60405180910390fd5b6006600760003373ffffffffffffffffffffffffffffffffffffffff1673ffffffffffffffffffffffffffffffffffffffff1681526020019081526020016000208190555061143f611b95565b611447611c99565b61144f611ce0565b14156114715761146c303360028461146791906129e8565b611d27565b61147d565b61147c333083611d27565b5b50565b611489336119b0565b8111156114cb576040517f08c379a00000000000000000000000000000000000000000000000000000000081526004016114c2906127af565b60405180910390fd5b6114d3610f17565b6002826114e091906129e8565b1115611521576040517f08c379a00000000000000000000000000000000000000000000000000000000081526004016115189061272f565b60405180910390fd5b6004600760003373ffffffffffffffffffffffffffffffffffffffff1673ffffffffffffffffffffffffffffffffffffffff1681526020019081526020016000208190555061156e611b95565b611576611c99565b61157e611ce0565b14156115a05761159b303360028461159691906129e8565b611d27565b6115ac565b6115ab333083611d27565b5b50565b6115b8336119b0565b8111156115fa576040517f08c379a00000000000000000000000000000000000000000000000000000000081526004016115f1906127af565b60405180910390fd5b611602610f17565b60028261160f91906129e8565b1115611650576040517f08c379a00000000000000000000000000000000000000000000000000000000081526004016116479061272f565b60405180910390fd5b6005600760003373ffffffffffffffffffffffffffffffffffffffff1673ffffffffffffffffffffffffffffffffffffffff1681526020019081526020016000208190555061169d611b95565b6116a5611c99565b6116ad611ce0565b14156116cf576116ca30336002846116c591906129e8565b611d27565b6116db565b6116da333083611d27565b5b50565b60006103e8600654836116f191906129e8565b6116fb91906129b7565b9050919050565b6000600160008473ffffffffffffffffffffffffffffffffffffffff1673ffffffffffffffffffffffffffffffffffffffff16815260200190815260200160002060008373ffffffffffffffffffffffffffffffffffffffff1673ffffffffffffffffffffffffffffffffffffffff16815260200190815260200160002054905092915050565b6117916119c2565b73ffffffffffffffffffffffffffffffffffffffff166117af610eed565b73ffffffffffffffffffffffffffffffffffffffff1614611805576040517f08c379a00000000000000000000000000000000000000000000000000000000081526004016117fc9061280f565b60405180910390fd5b600073ffffffffffffffffffffffffffffffffffffffff168173ffffffffffffffffffffffffffffffffffffffff161415611875576040517f08c379a000000000000000000000000000000000000000000000000000000000815260040161186c9061274f565b60405180910390fd5b61187e81612034565b50565b61188a336119b0565b8111156118cc576040517f08c379a00000000000000000000000000000000000000000000000000000000081526004016118c3906127af565b60405180910390fd5b6118d4610f17565b6002826118e191906129e8565b1115611922576040517f08c379a00000000000000000000000000000000000000000000000000000000081526004016119199061272f565b60405180910390fd5b6003600760003373ffffffffffffffffffffffffffffffffffffffff1673ffffffffffffffffffffffffffffffffffffffff1681526020019081526020016000208190555061196f611b95565b611977611c99565b61197f611ce0565b14156119a15761199c303360028461199791906129e8565b611d27565b6119ad565b6119ac333083611d27565b5b50565b60006119bb82610e1d565b9050919050565b600033905090565b600073ffffffffffffffffffffffffffffffffffffffff168373ffffffffffffffffffffffffffffffffffffffff161415611a3a576040517f08c379a0000000000000000000000000000000000000000000000000000000008152600401611a319061284f565b60405180910390fd5b600073ffffffffffffffffffffffffffffffffffffffff168273ffffffffffffffffffffffffffffffffffffffff161415611aaa576040517f08c379a0000000000000000000000000000000000000000000000000000000008152600401611aa19061276f565b60405180910390fd5b80600160008573ffffffffffffffffffffffffffffffffffffffff1673ffffffffffffffffffffffffffffffffffffffff16815260200190815260200160002060008473ffffffffffffffffffffffffffffffffffffffff1673ffffffffffffffffffffffffffffffffffffffff168152602001908152602001600020819055508173ffffffffffffffffffffffffffffffffffffffff168373ffffffffffffffffffffffffffffffffffffffff167f8c5be1e5ebec7d5bd14f71427d1e84f3dd0314c0f7b2291e5b200ac8c7c3b92583604051611b88919061290f565b60405180910390a3505050565b60096000815480929190611ba890612b30565b9190505550600060074233600954604051602001611bc89392919061267a565b6040516020818303038152906040528051906020012060001c611beb9190612ba7565b90505b6000811415611c525760096000815480929190611c0a90612b30565b919050555060074233600954604051602001611c289392919061267a565b6040516020818303038152906040528051906020012060001c611c4b9190612ba7565b9050611bee565b80600860003373ffffffffffffffffffffffffffffffffffffffff1673ffffffffffffffffffffffffffffffffffffffff1681526020019081526020016000208190555050565b6000600760003373ffffffffffffffffffffffffffffffffffffffff1673ffffffffffffffffffffffffffffffffffffffff16815260200190815260200160002054905090565b6000600860003373ffffffffffffffffffffffffffffffffffffffff1673ffffffffffffffffffffffffffffffffffffffff16815260200190815260200160002054905090565b600073ffffffffffffffffffffffffffffffffffffffff168373ffffffffffffffffffffffffffffffffffffffff161415611d97576040517f08c379a0000000000000000000000000000000000000000000000000000000008152600401611d8e9061282f565b60405180910390fd5b600073ffffffffffffffffffffffffffffffffffffffff168273ffffffffffffffffffffffffffffffffffffffff161415611e07576040517f08c379a0000000000000000000000000000000000000000000000000000000008152600401611dfe9061270f565b60405180910390fd5b611e1283838361225a565b60008060008573ffffffffffffffffffffffffffffffffffffffff1673ffffffffffffffffffffffffffffffffffffffff16815260200190815260200160002054905081811015611e98576040517f08c379a0000000000000000000000000000000000000000000000000000000008152600401611e8f906127cf565b60405180910390fd5b8181036000808673ffffffffffffffffffffffffffffffffffffffff1673ffffffffffffffffffffffffffffffffffffffff16815260200190815260200160002081905550816000808573ffffffffffffffffffffffffffffffffffffffff1673ffffffffffffffffffffffffffffffffffffffff1681526020019081526020016000206000828254611f2b9190612961565b925050819055508273ffffffffffffffffffffffffffffffffffffffff168473ffffffffffffffffffffffffffffffffffffffff167fddf252ad1be2c89b69c2b068fc378daa952ba7f163c4a11628f55a4df523b3ef84604051611f8f919061290f565b60405180910390a3611fa284848461225f565b50505050565b6000611fb48484611702565b90507fffffffffffffffffffffffffffffffffffffffffffffffffffffffffffffffff811461202e5781811015612020576040517f08c379a00000000000000000000000000000000000000000000000000000000081526004016120179061278f565b60405180910390fd5b61202d84848484036119ca565b5b50505050565b6000600560009054906101000a900473ffffffffffffffffffffffffffffffffffffffff16905081600560006101000a81548173ffffffffffffffffffffffffffffffffffffffff021916908373ffffffffffffffffffffffffffffffffffffffff1602179055508173ffffffffffffffffffffffffffffffffffffffff168173ffffffffffffffffffffffffffffffffffffffff167f8be0079c531659141344cd1fd0a4f28419497f9722a3daafe3b4186f6b6457e060405160405180910390a35050565b600073ffffffffffffffffffffffffffffffffffffffff168273ffffffffffffffffffffffffffffffffffffffff16141561216a576040517f08c379a0000000000000000000000000000000000000000000000000000000008152600401612161906128ef565b60405180910390fd5b6121766000838361225a565b80600260008282546121889190612961565b92505081905550806000808473ffffffffffffffffffffffffffffffffffffffff1673ffffffffffffffffffffffffffffffffffffffff16815260200190815260200160002060008282546121dd9190612961565b925050819055508173ffffffffffffffffffffffffffffffffffffffff16600073ffffffffffffffffffffffffffffffffffffffff167fddf252ad1be2c89b69c2b068fc378daa952ba7f163c4a11628f55a4df523b3ef83604051612242919061290f565b60405180910390a36122566000838361225f565b5050565b505050565b505050565b600081359050612273816130b5565b92915050565b600081359050612288816130cc565b92915050565b6000602082840312156122a057600080fd5b60006122ae84828501612264565b91505092915050565b600080604083850312156122ca57600080fd5b60006122d885828601612264565b92505060206122e985828601612264565b9150509250929050565b60008060006060848603121561230857600080fd5b600061231686828701612264565b935050602061232786828701612264565b925050604061233886828701612279565b9150509250925092565b6000806040838503121561235557600080fd5b600061236385828601612264565b925050602061237485828601612279565b9150509250929050565b60006020828403121561239057600080fd5b600061239e84828501612279565b91505092915050565b6123b081612a76565b82525050565b6123c76123c282612a76565b612b79565b82525050565b6123d681612a88565b82525050565b60006123e782612945565b6123f18185612950565b9350612401818560208601612acb565b61240a81612c65565b840191505092915050565b6000612422602383612950565b915061242d82612c83565b604082019050919050565b6000612445603683612950565b915061245082612cd2565b604082019050919050565b6000612468602683612950565b915061247382612d21565b604082019050919050565b600061248b602283612950565b915061249682612d70565b604082019050919050565b60006124ae601d83612950565b91506124b982612dbf565b602082019050919050565b60006124d1601c83612950565b91506124dc82612de8565b602082019050919050565b60006124f4602683612950565b91506124ff82612e11565b604082019050919050565b6000612517602083612950565b915061252282612e60565b602082019050919050565b600061253a602083612950565b915061254582612e89565b602082019050919050565b600061255d602583612950565b915061256882612eb2565b604082019050919050565b6000612580602483612950565b915061258b82612f01565b604082019050919050565b60006125a3602e83612950565b91506125ae82612f50565b604082019050919050565b60006125c6602983612950565b91506125d182612f9f565b604082019050919050565b60006125e9602883612950565b91506125f482612fee565b604082019050919050565b600061260c602583612950565b91506126178261303d565b604082019050919050565b600061262f601f83612950565b915061263a8261308c565b602082019050919050565b61264e81612ab4565b82525050565b61266561266082612ab4565b612b9d565b82525050565b61267481612abe565b82525050565b60006126868286612654565b60208201915061269682856123b6565b6014820191506126a68284612654565b602082019150819050949350505050565b60006020820190506126cc60008301846123a7565b92915050565b60006020820190506126e760008301846123cd565b92915050565b6000602082019050818103600083015261270781846123dc565b905092915050565b6000602082019050818103600083015261272881612415565b9050919050565b6000602082019050818103600083015261274881612438565b9050919050565b600060208201905081810360008301526127688161245b565b9050919050565b600060208201905081810360008301526127888161247e565b9050919050565b600060208201905081810360008301526127a8816124a1565b9050919050565b600060208201905081810360008301526127c8816124c4565b9050919050565b600060208201905081810360008301526127e8816124e7565b9050919050565b600060208201905081810360008301526128088161250a565b9050919050565b600060208201905081810360008301526128288161252d565b9050919050565b6000602082019050818103600083015261284881612550565b9050919050565b6000602082019050818103600083015261286881612573565b9050919050565b6000602082019050818103600083015261288881612596565b9050919050565b600060208201905081810360008301526128a8816125b9565b9050919050565b600060208201905081810360008301526128c8816125dc565b9050919050565b600060208201905081810360008301526128e8816125ff565b9050919050565b6000602082019050818103600083015261290881612622565b9050919050565b60006020820190506129246000830184612645565b92915050565b600060208201905061293f600083018461266b565b92915050565b600081519050919050565b600082825260208201905092915050565b600061296c82612ab4565b915061297783612ab4565b9250827fffffffffffffffffffffffffffffffffffffffffffffffffffffffffffffffff038211156129ac576129ab612bd8565b5b828201905092915050565b60006129c282612ab4565b91506129cd83612ab4565b9250826129dd576129dc612c07565b5b828204905092915050565b60006129f382612ab4565b91506129fe83612ab4565b9250817fffffffffffffffffffffffffffffffffffffffffffffffffffffffffffffffff0483118215151615612a3757612a36612bd8565b5b828202905092915050565b6000612a4d82612ab4565b9150612a5883612ab4565b925082821015612a6b57612a6a612bd8565b5b828203905092915050565b6000612a8182612a94565b9050919050565b60008115159050919050565b600073ffffffffffffffffffffffffffffffffffffffff82169050919050565b6000819050919050565b600060ff82169050919050565b60005b83811015612ae9578082015181840152602081019050612ace565b83811115612af8576000848401525b50505050565b60006002820490506001821680612b1657607f821691505b60208210811415612b2a57612b29612c36565b5b50919050565b6000612b3b82612ab4565b91507fffffffffffffffffffffffffffffffffffffffffffffffffffffffffffffffff821415612b6e57612b6d612bd8565b5b600182019050919050565b6000612b8482612b8b565b9050919050565b6000612b9682612c76565b9050919050565b6000819050919050565b6000612bb282612ab4565b9150612bbd83612ab4565b925082612bcd57612bcc612c07565b5b828206905092915050565b7f4e487b7100000000000000000000000000000000000000000000000000000000600052601160045260246000fd5b7f4e487b7100000000000000000000000000000000000000000000000000000000600052601260045260246000fd5b7f4e487b7100000000000000000000000000000000000000000000000000000000600052602260045260246000fd5b6000601f19601f8301169050919050565b60008160601b9050919050565b7f45524332303a207472616e7366657220746f20746865207a65726f206164647260008201527f6573730000000000000000000000000000000000000000000000000000000000602082015250565b7f456c20736d61727420636f6e7472616374206e6f207469656e6520737566696360008201527f69656e74657320746f6b656e7320706172612064617200000000000000000000602082015250565b7f4f776e61626c653a206e6577206f776e657220697320746865207a65726f206160008201527f6464726573730000000000000000000000000000000000000000000000000000602082015250565b7f45524332303a20617070726f766520746f20746865207a65726f20616464726560008201527f7373000000000000000000000000000000000000000000000000000000000000602082015250565b7f45524332303a20696e73756666696369656e7420616c6c6f77616e6365000000600082015250565b7f4e6f207469656e657320746f6b656e7320737566696369656e74657300000000600082015250565b7f45524332303a207472616e7366657220616d6f756e742065786365656473206260008201527f616c616e63650000000000000000000000000000000000000000000000000000602082015250565b7f436f6d70726120756e206e756d65726f206d656e6f7220646520746f6b656e73600082015250565b7f4f776e61626c653a2063616c6c6572206973206e6f7420746865206f776e6572600082015250565b7f45524332303a207472616e736665722066726f6d20746865207a65726f20616460008201527f6472657373000000000000000000000000000000000000000000000000000000602082015250565b7f45524332303a20617070726f76652066726f6d20746865207a65726f2061646460008201527f7265737300000000000000000000000000000000000000000000000000000000602082015250565b7f4e65636573697461732076656e64657220756e206e756d65726f20646520746f60008201527f6b656e73206d61796f7220612030000000000000000000000000000000000000602082015250565b7f436f6d707261206d656e6f7320746f6b656e73206f207061676120636f6e206d60008201527f6173206574686572730000000000000000000000000000000000000000000000602082015250565b7f4e6f207469656e6573206c6f7320746f6b656e7320717565206465736561732060008201527f6465766f6c766572000000000000000000000000000000000000000000000000602082015250565b7f45524332303a2064656372656173656420616c6c6f77616e63652062656c6f7760008201527f207a65726f000000000000000000000000000000000000000000000000000000602082015250565b7f45524332303a206d696e7420746f20746865207a65726f206164647265737300600082015250565b6130be81612a76565b81146130c957600080fd5b50565b6130d581612ab4565b81146130e057600080fd5b5056fea2646970667358221220d872d96eda33a35480211be3ab6609acadc10ac946f1d88b5a5f9d3afadfd34c64736f6c63430008040033",
  "immutableReferences": {},
  "source": "// SPDX-License-Identifier: MIT\npragma solidity ^0.8.4;\n\nimport \"@openzeppelin/contracts/token/ERC20/ERC20.sol\";\nimport \"@openzeppelin/contracts/access/Ownable.sol\";\n\ncontract Dice is ERC20, Ownable {\n    // Constructor\n    constructor() ERC20(\"Dice\", \"JDM\") {\n        _mint(address(this), 100);        \n    }\n\n    \n    // En este campo, el numero entero que se ingrese, ser divido entre 1000, generando un numero decimal.\n    uint256 private pricePerEachToken = 3 ether;\n\n    mapping(address => uint256) public id_userNumber;\n\n    // Relaciona usuario con el numero random\n    mapping(address => uint256) public idPersona_randomNumber;\n\n    // Esta funcion permite cambiar el precio por cada token JDM\n    function changePrice(uint256 _price) public onlyOwner returns (bool) {\n        pricePerEachToken = _price * 1 ether;\n        return true;\n    }\n\n    // Precio de los tokens ERC-20\n    function tokenPrice(uint256 _numTokens) public view returns (uint256) {        \n        return _numTokens * pricePerEachToken / 1000;\n    }\n\n    // Visualizacion del balance de tokens ERC-20 de un usuario\n    function balanceTokens(address _account) public view returns (uint256) {\n        return balanceOf(_account);\n    }\n    \n    // Visualizacion del balance de tokens ERC-20 del Smart Contract\n    function balanceTokensSC() public view returns (uint256) {\n        return balanceOf(address(this));\n    }\n\n    // Generacion de nuevos Tokens ERC-20\n    function mint(uint256 _amount) public onlyOwner {\n        _mint(address(this), _amount);\n    }\n\n    // Visualizacion del balance de ethers del Smart Contract\n    function balanceEthersSC() public view returns (uint256) {\n        return address(this).balance / 10**15;                        \n    }\n        \n    // Compra de tokens ERC-20\n    function buyTokens(uint256 _numTokens) public payable {\n        // Guarda el total de ethers que podria ganar\n        //uint256 _tokenPrice = tokenPrice(_numTokens * 2);\n        // Guarda la cantidad de ethers expresado en weis que tiene el sc \n        //uint256 balanceEthersContract = address(this).balance;        \n        // Verifica que el smart contract tenga ethers disponibles. Se le resta msg.value\n        // porque lo primero que hace el codigo es que incrementa el balanceEthersSC() con \n        // la compra que estamos haciendo.\n        //require(balanceEthersContract - msg.value >= _tokenPrice, \"El smart contract no tiene Ethers disponibles para entregar recompensa. Compra menos\");\n        // Establecimiento del cost de los tokens a comprar\n        uint256 cost = tokenPrice(_numTokens);\n        // Evaluacion del dinero que el cliente paga por los tokens\n        require(msg.value >= cost,\"Compra menos tokens o paga con mas ethers\");\n        // Obtencion del numero de tokens ERC-20 disponibles en el smart contract\n        uint256 balance = balanceTokensSC();\n        require(_numTokens <= balance, \"Compra un numero menor de tokens\");\n        // Devolucion del dinero sobrante\n        uint256 returnValue = msg.value - cost;\n        // El Smart Contract devuelve la cantidad restante\n        payable(msg.sender).transfer(returnValue);\n        // Envio de los tokens al cliente/usuario\n        _transfer(address(this), msg.sender, _numTokens);\n    }\n\n    // Venta de tokens al Smart Contract\n    function sellTokens(uint256 _numTokens) public payable {\n        // El numero de tokens debe ser mayor a 0\n        require(_numTokens > 0, \"Necesitas vender un numero de tokens mayor a 0\");\n        // El usuario debe acreditar tener los tokens que quiere devolver\n        require(_numTokens <= balanceTokens(msg.sender), \"No tienes los tokens que deseas devolver\");\n        // El usuario transfiere los tokens al Smart Contract\n        _transfer(msg.sender, address(this), _numTokens);\n        // El Smart Contract envia los ethers al usuario\n        payable(msg.sender).transfer(tokenPrice(_numTokens));\n    }\n\n    function sendEthers() public payable onlyOwner returns(bool) {\n        return true;\n    }\n\n    function withdraw(uint _amount) public payable onlyOwner returns (bool) {\n        payable(owner()).transfer(_amount*10**18);\n        return true;\n    }        \n    \n    // Apuesta al 1\n    function bet1(uint256 _amountBet) public {\n        // Guarda el total de ethers que podria ganar\n        //uint256 _tokenPrice = tokenPrice(_amountBet * 2);\n        // Guarda la cantidad de ethers expresado en weis que tiene el sc.\n        //uint256 balanceEthersContractBet = address(this).balance;        \n        // Verifica que el smart contract tenga ethers disponibles.\n        //require(balanceEthersContractBet >= _tokenPrice, \"El smart contract no tiene Ethers disponibles. Contacta al owner para que envie ethers\");              \n        // Verifica que el usuario tenga los tokens que va apostar\n        require(_amountBet <= balanceTokens(msg.sender), \"No tienes tokens suficientes\");\n        // Verifica que el smart contract tenga tokens disponibles\n        require(_amountBet * 2 <= balanceTokensSC(), \"El smart contract no tiene suficientes tokens para dar\");\n        // Guardamos en un mapping el numero seleccionado.\n        id_userNumber[msg.sender] = 1;\n        // Se genera el numero aleatorio\n        generateNumber();\n        if(randomNumber() == selectedNumber()) {\n            _transfer(address(this), msg.sender, _amountBet*2);\n        } else {\n            _transfer(msg.sender, address(this), _amountBet);\n        }        \n    }\n    \n    // Apuesta al 2\n    function bet2(uint256 _amountBet) public {\n        // Guarda el total de ethers que podria ganar\n        //uint256 _tokenPrice = tokenPrice(_amountBet * 2);\n        // Guarda la cantidad de ethers expresado en weis que tiene el sc.\n        //uint256 balanceEthersContractBet = address(this).balance;        \n        // Verifica que el smart contract tenga ethers disponibles.\n        //require(balanceEthersContractBet >= _tokenPrice, \"El smart contract no tiene Ethers disponibles. Contacta al owner para que envie ethers\");       \n        // Verifica que el usuario tenga los tokens que va apostar\n        require(_amountBet <= balanceTokens(msg.sender), \"No tienes tokens suficientes\");\n        // Verifica que el smart contract tenga tokens disponibles\n        require(_amountBet * 2 <= balanceTokensSC(), \"El smart contract no tiene suficientes tokens para dar\");\n        // Guardamos en un mapping el numero seleccionado.\n        id_userNumber[msg.sender] = 2;\n        // Se genera el numero aleatorio\n        generateNumber();\n        if(randomNumber() == selectedNumber()) {\n            _transfer(address(this), msg.sender, _amountBet*2);\n        } else {\n            _transfer(msg.sender, address(this), _amountBet);\n        }        \n    }\n\n     // Apuesta al 3\n    function bet3(uint256 _amountBet) public {\n        // Guarda el total de ethers que podria ganar\n        //uint256 _tokenPrice = tokenPrice(_amountBet * 2);\n        // Guarda la cantidad de ethers expresado en weis que tiene el sc.\n        //uint256 balanceEthersContractBet = address(this).balance;        \n        // Verifica que el smart contract tenga ethers disponibles.\n        //require(balanceEthersContractBet >= _tokenPrice, \"El smart contract no tiene Ethers disponibles. Contacta al owner para que envie ethers\");\n        // Verifica que el usuario tenga los tokens que va apostar\n        require(_amountBet <= balanceTokens(msg.sender), \"No tienes tokens suficientes\");\n        // Verifica que el smart contract tenga tokens disponibles\n        require(_amountBet * 2 <= balanceTokensSC(), \"El smart contract no tiene suficientes tokens para dar\");\n        // Guardamos en un mapping el numero seleccionado.\n        id_userNumber[msg.sender] = 3;\n        // Se genera el numero aleatorio\n        generateNumber();\n        if(randomNumber() == selectedNumber()) {\n            _transfer(address(this), msg.sender, _amountBet*2);\n        } else {\n            _transfer(msg.sender, address(this), _amountBet);\n        }        \n    }\n\n     // Apuesta al 4\n    function bet4(uint256 _amountBet) public {\n        // Guarda el total de ethers que podria ganar\n        //uint256 _tokenPrice = tokenPrice(_amountBet * 2);\n        // Guarda la cantidad de ethers expresado en weis que tiene el sc.\n        //uint256 balanceEthersContractBet = address(this).balance;        \n        // Verifica que el smart contract tenga ethers disponibles.\n        //require(balanceEthersContractBet >= _tokenPrice, \"El smart contract no tiene Ethers disponibles. Contacta al owner para que envie ethers\");\n        // Verifica que el usuario tenga los tokens que va apostar\n        require(_amountBet <= balanceTokens(msg.sender), \"No tienes tokens suficientes\");\n        // Verifica que el smart contract tenga tokens disponibles\n        require(_amountBet * 2 <= balanceTokensSC(), \"El smart contract no tiene suficientes tokens para dar\");\n        // Guardamos en un mapping el numero seleccionado.\n        id_userNumber[msg.sender] = 4;\n        // Se genera el numero aleatorio\n        generateNumber();\n        if(randomNumber() == selectedNumber()) {\n            _transfer(address(this), msg.sender, _amountBet*2);\n        } else {\n            _transfer(msg.sender, address(this), _amountBet);\n        }        \n    }\n\n     // Apuesta al 5\n    function bet5(uint256 _amountBet) public {\n        // Guarda el total de ethers que podria ganar\n        //uint256 _tokenPrice = tokenPrice(_amountBet * 2);\n        // Guarda la cantidad de ethers expresado en weis que tiene el sc.\n        //uint256 balanceEthersContractBet = address(this).balance;        \n        // Verifica que el smart contract tenga ethers disponibles.\n        //require(balanceEthersContractBet >= _tokenPrice, \"El smart contract no tiene Ethers disponibles. Contacta al owner para que envie ethers\");\n        // Verifica que el usuario tenga los tokens que va apostar\n        require(_amountBet <= balanceTokens(msg.sender), \"No tienes tokens suficientes\");\n        // Verifica que el smart contract tenga tokens disponibles\n        require(_amountBet * 2 <= balanceTokensSC(), \"El smart contract no tiene suficientes tokens para dar\");\n        // Guardamos en un mapping el numero seleccionado.\n        id_userNumber[msg.sender] = 5;\n        // Se genera el numero aleatorio\n        generateNumber();\n        if(randomNumber() == selectedNumber()) {\n            _transfer(address(this), msg.sender, _amountBet*2);\n        } else {\n            _transfer(msg.sender, address(this), _amountBet);\n        }        \n    }\n\n     // Apuesta al 6\n    function bet6(uint256 _amountBet) public {\n        // Guarda el total de ethers que podria ganar\n        //uint256 _tokenPrice = tokenPrice(_amountBet * 2);\n        // Guarda la cantidad de ethers expresado en weis que tiene el sc.\n        //uint256 balanceEthersContractBet = address(this).balance;        \n        // Verifica que el smart contract tenga ethers disponibles.\n        //require(balanceEthersContractBet >= _tokenPrice, \"El smart contract no tiene Ethers disponibles. Contacta al owner para que envie ethers\");\n        // Verifica que el usuario tenga los tokens que va apostar\n        require(_amountBet <= balanceTokens(msg.sender), \"No tienes tokens suficientes\");\n        // Verifica que el smart contract tenga tokens disponibles\n        require(_amountBet * 2 <= balanceTokensSC(), \"El smart contract no tiene suficientes tokens para dar\");\n        // Guardamos en un mapping el numero seleccionado.\n        id_userNumber[msg.sender] = 6;\n       // Se genera el numero aleatorio\n        generateNumber();\n        if(randomNumber() == selectedNumber()) {\n            _transfer(address(this), msg.sender, _amountBet*2);\n        } else {\n            _transfer(msg.sender, address(this), _amountBet);\n        }        \n    }\n\n    function selectedNumber() private view returns (uint256) {\n        return id_userNumber[msg.sender];        \n    }\n    \n    function randomNumber() private view returns (uint256) {\n        return idPersona_randomNumber[msg.sender];\n    }  \n\n    uint256 private randNonce = 0;\n\n    // Generacion del numero Random\n    function generateNumber() private {\n        randNonce++;\n        // Eleccion aleatoria de un numero entre: [0-6]\n        uint256 random = uint256(keccak256(abi.encodePacked(block.timestamp,msg.sender, randNonce))) % 7;\n        \n        while (random == 0) {\n            randNonce++;\n            random = uint256(keccak256(abi.encodePacked(block.timestamp,msg.sender, randNonce))) % 7;\n        }\n        // Se ingresa en el mapping el numero random perteneciente al usuario\n        idPersona_randomNumber[msg.sender] = random;\n    }\n   \n          \n}\n",
  "sourcePath": "C:\\Users\\Juan David\\Desktop\\Portafolio profesional Blockchain\\JuegoDice\\DiceBet\\src\\contracts\\DiceBet.sol",
  "compiler": {
    "name": "solc",
    "version": "0.8.4+commit.c7e474f2.Emscripten.clang"
  },
  "schemaVersion": "3.4.7",
  "updatedAt": "2023-04-06T02:58:11.459Z",
  "networkType": "ethereum",
  "devdoc": {
    "kind": "dev",
    "methods": {
      "allowance(address,address)": {
        "details": "See {IERC20-allowance}."
      },
      "approve(address,uint256)": {
        "details": "See {IERC20-approve}. NOTE: If `amount` is the maximum `uint256`, the allowance is not updated on `transferFrom`. This is semantically equivalent to an infinite approval. Requirements: - `spender` cannot be the zero address."
      },
      "balanceOf(address)": {
        "details": "See {IERC20-balanceOf}."
      },
      "decimals()": {
        "details": "Returns the number of decimals used to get its user representation. For example, if `decimals` equals `2`, a balance of `505` tokens should be displayed to a user as `5.05` (`505 / 10 ** 2`). Tokens usually opt for a value of 18, imitating the relationship between Ether and Wei. This is the value {ERC20} uses, unless this function is overridden; NOTE: This information is only used for _display_ purposes: it in no way affects any of the arithmetic of the contract, including {IERC20-balanceOf} and {IERC20-transfer}."
      },
      "decreaseAllowance(address,uint256)": {
        "details": "Atomically decreases the allowance granted to `spender` by the caller. This is an alternative to {approve} that can be used as a mitigation for problems described in {IERC20-approve}. Emits an {Approval} event indicating the updated allowance. Requirements: - `spender` cannot be the zero address. - `spender` must have allowance for the caller of at least `subtractedValue`."
      },
      "increaseAllowance(address,uint256)": {
        "details": "Atomically increases the allowance granted to `spender` by the caller. This is an alternative to {approve} that can be used as a mitigation for problems described in {IERC20-approve}. Emits an {Approval} event indicating the updated allowance. Requirements: - `spender` cannot be the zero address."
      },
      "name()": {
        "details": "Returns the name of the token."
      },
      "owner()": {
        "details": "Returns the address of the current owner."
      },
      "renounceOwnership()": {
        "details": "Leaves the contract without owner. It will not be possible to call `onlyOwner` functions anymore. Can only be called by the current owner. NOTE: Renouncing ownership will leave the contract without an owner, thereby removing any functionality that is only available to the owner."
      },
      "symbol()": {
        "details": "Returns the symbol of the token, usually a shorter version of the name."
      },
      "totalSupply()": {
        "details": "See {IERC20-totalSupply}."
      },
      "transfer(address,uint256)": {
        "details": "See {IERC20-transfer}. Requirements: - `to` cannot be the zero address. - the caller must have a balance of at least `amount`."
      },
      "transferFrom(address,address,uint256)": {
        "details": "See {IERC20-transferFrom}. Emits an {Approval} event indicating the updated allowance. This is not required by the EIP. See the note at the beginning of {ERC20}. NOTE: Does not update the allowance if the current allowance is the maximum `uint256`. Requirements: - `from` and `to` cannot be the zero address. - `from` must have a balance of at least `amount`. - the caller must have allowance for ``from``'s tokens of at least `amount`."
      },
      "transferOwnership(address)": {
        "details": "Transfers ownership of the contract to a new account (`newOwner`). Can only be called by the current owner."
      }
    },
    "version": 1
  },
  "userdoc": {
    "kind": "user",
    "methods": {},
    "version": 1
  }
}